{
  "contractName": "Voting",
  "abi": [
    {
      "constant": true,
      "inputs": [
        {
          "name": "",
          "type": "uint256"
        }
      ],
      "name": "options",
      "outputs": [
        {
          "name": "id",
          "type": "uint256"
        },
        {
          "name": "name",
          "type": "string"
        },
        {
          "name": "voteCount",
          "type": "uint256"
        }
      ],
      "payable": false,
      "stateMutability": "view",
      "type": "function"
    },
    {
      "constant": true,
      "inputs": [
        {
          "name": "",
          "type": "address"
        }
      ],
      "name": "voters",
      "outputs": [
        {
          "name": "",
          "type": "bool"
        }
      ],
      "payable": false,
      "stateMutability": "view",
      "type": "function"
    },
    {
      "constant": true,
      "inputs": [],
      "name": "optionCount",
      "outputs": [
        {
          "name": "",
          "type": "uint256"
        }
      ],
      "payable": false,
      "stateMutability": "view",
      "type": "function"
    },
    {
      "constant": true,
      "inputs": [
        {
          "name": "",
          "type": "address"
        }
      ],
      "name": "votedFor",
      "outputs": [
        {
          "name": "",
          "type": "uint256"
        }
      ],
      "payable": false,
      "stateMutability": "view",
      "type": "function"
    },
    {
      "inputs": [],
      "payable": false,
      "stateMutability": "nonpayable",
      "type": "constructor"
    },
    {
      "anonymous": false,
      "inputs": [
        {
          "indexed": true,
          "name": "_optionId",
          "type": "uint256"
        }
      ],
      "name": "voteEvent",
      "type": "event"
    },
    {
      "constant": false,
      "inputs": [
        {
          "name": "_optionId",
          "type": "uint256"
        }
      ],
      "name": "vote",
      "outputs": [],
      "payable": false,
      "stateMutability": "nonpayable",
      "type": "function"
    }
  ],
  "bytecode": "0x6060604052341561000f57600080fd5b6100606040805190810160405280600881526020017f4f7074696f6e20310000000000000000000000000000000000000000000000008152506101a9640100000000026103f0176401000000009004565b6100b16040805190810160405280600881526020017f4f7074696f6e20320000000000000000000000000000000000000000000000008152506101a9640100000000026103f0176401000000009004565b6101026040805190810160405280600881526020017f4f7074696f6e20330000000000000000000000000000000000000000000000008152506101a9640100000000026103f0176401000000009004565b6101536040805190810160405280600881526020017f4f7074696f6e20340000000000000000000000000000000000000000000000008152506101a9640100000000026103f0176401000000009004565b6101a46040805190810160405280600881526020017f4f7074696f6e20350000000000000000000000000000000000000000000000008152506101a9640100000000026103f0176401000000009004565b6102cb565b60036000815480929190600101919050555060606040519081016040528060035481526020018281526020016000815250600260006003548152602001908152602001600020600082015181600001556020820151816001019080519060200190610215929190610226565b506040820151816002015590505050565b828054600181600116156101000203166002900490600052602060002090601f016020900481019282601f1061026757805160ff1916838001178555610295565b82800160010185558215610295579182015b82811115610294578251825591602001919060010190610279565b5b5090506102a291906102a6565b5090565b6102c891905b808211156102c45760008160009055506001016102ac565b5090565b90565b61053e806102da6000396000f30060606040526004361061006d576000357c0100000000000000000000000000000000000000000000000000000000900463ffffffff1680630121b93f14610072578063409e220514610095578063a3ec138d1461015c578063e32fe90b146101ad578063f594f13f146101d6575b600080fd5b341561007d57600080fd5b6100936004808035906020019091905050610223565b005b34156100a057600080fd5b6100b66004808035906020019091905050610389565b604051808481526020018060200183815260200182810382528481815460018160011615610100020316600290048152602001915080546001816001161561010002031660029004801561014b5780601f106101205761010080835404028352916020019161014b565b820191906000526020600020905b81548152906001019060200180831161012e57829003601f168201915b505094505050505060405180910390f35b341561016757600080fd5b610193600480803573ffffffffffffffffffffffffffffffffffffffff169060200190919050506103b2565b604051808215151515815260200191505060405180910390f35b34156101b857600080fd5b6101c06103d2565b6040518082815260200191505060405180910390f35b34156101e157600080fd5b61020d600480803573ffffffffffffffffffffffffffffffffffffffff169060200190919050506103d8565b6040518082815260200191505060405180910390f35b6000803373ffffffffffffffffffffffffffffffffffffffff1673ffffffffffffffffffffffffffffffffffffffff16815260200190815260200160002060009054906101000a900460ff1615151561027b57600080fd5b60008111801561028d57506003548111155b151561029857600080fd5b60016000803373ffffffffffffffffffffffffffffffffffffffff1673ffffffffffffffffffffffffffffffffffffffff16815260200190815260200160002060006101000a81548160ff021916908315150217905550600260008281526020019081526020016000206002016000815480929190600101919050555080600160003373ffffffffffffffffffffffffffffffffffffffff1673ffffffffffffffffffffffffffffffffffffffff16815260200190815260200160002081905550807fa247b679b8fc65eb95979774186f3f4068743d7c38c37ca4b1181dcb7ca2507d60405160405180910390a250565b600260205280600052604060002060009150905080600001549080600101908060020154905083565b60006020528060005260406000206000915054906101000a900460ff1681565b60035481565b60016020528060005260406000206000915090505481565b6003600081548092919060010191905055506060604051908101604052806003548152602001828152602001600081525060026000600354815260200190815260200160002060008201518160000155602082015181600101908051906020019061045c92919061046d565b506040820151816002015590505050565b828054600181600116156101000203166002900490600052602060002090601f016020900481019282601f106104ae57805160ff19168380011785556104dc565b828001600101855582156104dc579182015b828111156104db5782518255916020019190600101906104c0565b5b5090506104e991906104ed565b5090565b61050f91905b8082111561050b5760008160009055506001016104f3565b5090565b905600a165627a7a72305820f25675edb98eba0c26246410f6ad4f2f51cfb0bc17a5cfc112cff95299bf75f10029",
  "source": "pragma solidity 0.4.20;\n\ncontract Voting {\n\n    // struct to store the option informations \n    struct Option {\n        uint id;\n        string name;\n        uint voteCount;\n    }\n\n    // mapping for voted voters to ensure no second vote\n    mapping(address => bool) public voters;\n    \n    // mapping for voted voters to see which option they voted for\n    mapping(address=> uint) public votedFor;\n    \n    // mapping for index to option\n    mapping(uint => Option) public options;\n\n    // number of options\n    uint public optionCount;\n\n    event voteEvent (\n        uint indexed _optionId\n    );\n\n    // initalize 5 options\n    function Voting () public {\n        addOption(\"Option 1\");\n        addOption(\"Option 2\");\n        addOption(\"Option 3\");\n        addOption(\"Option 4\");\n        addOption(\"Option 5\");\n    }\n\n    // \n    function addOption (string _name) private {\n        optionCount ++;\n        options[optionCount] = Option(optionCount, _name, 0);\n    }\n\n    function vote (uint _optionId) public {\n        // check no double voting\n        require(!voters[msg.sender]);\n\n        // check valid Id\n        require(_optionId > 0 && _optionId <= optionCount);\n        \n        // add voter to votes mapping\n        voters[msg.sender] = true;\n        \n        // add a vote to the option\n        options[_optionId].voteCount ++;\n\n        // add a mapping to indicate which one voted for\n        votedFor[msg.sender] = _optionId;\n\n        voteEvent(_optionId);\n        \n    }\n}\n",
  "sourcePath": "/home/lc/Desktop/Blockchain_Dapp_Election/contracts/Voting.sol",
  "compiler": {
    "name": "solc",
    "version": "0.4.20+commit.3155dd80.Emscripten.clang"
  },
  "schemaVersion": "3.4.1",
  "updatedAt": "2021-08-03T08:58:42.939Z",
  "networkType": "ethereum",
  "devdoc": {
    "methods": {}
  },
  "userdoc": {
    "methods": {}
  }
}